:020000040802F0
:10000000D0B600205D020208112A02085D23020812
:100010000D2A0208AD0B02089B3F020800000000F9
:100020000000000000000000000000009D01020828
:10003000270C020800000000F9010208B93102088B
:1000400077020208770202087702020877020208A4
:100050007702020877020208770202087702020894
:100060007702020877020208770202087702020884
:100070007702020877020208770202087702020874
:100080007702020877020208770202087702020864
:100090007702020877020208770202087702020854
:1000A0007702020877020208770202087702020844
:1000B0007702020877020208770202087702020834
:1000C0007702020877020208770202087702020824
:1000D0007702020877020208770202087702020814
:1000E0007702020877020208770202087702020804
:1000F0003D340208770202087702020877020208FC
:1001000077020208770202087702020877020208E3
:100110000139020877020208770202087702020812
:1001200077020208770202087702020877020208C3
:1001300077020208770202087702020877020208B3
:1001400077020208770202087702020877020208A3
:100150007702020877020208770202087702020893
:100160007702020877020208770202087702020883
:1001700077020208770202087702020800000000F6
:100180007702020877020208DFF80CD000F002F9CB
:100190000048004771420208D0B600202C4B196875
:1001A0000868B0E8F04F80F30988BFF36F8F4FF015
:1001B000000080F3118870470000000008480068C4
:1001C000006880F308884FF0000080F3148862B65E
:1001D00061B6BFF34F8FBFF36F8F00DF00BF00BF6B
:1001E00008ED00E0DFF80C00016841F470010160E7
:1001F000704700BF88ED00E0EFF30980BFF36F8F19
:10020000134B1A681EF0100F08BF20ED108A20E96A
:10021000F04F106009B44FF0500080F31188BFF325
:100220004F8FBFF36F8F05F019FA4FF0000080F386
:10023000118809BC19680868B0E8F04F1EF0100F6B
:1002400008BFB0EC108A80F30988BFF36F8F704746
:100250002C000020EFF3058070470000064880471F
:1002600006480047FEE7FEE7FEE7FEE7FEE7FEE79B
:10027000FEE7FEE7FEE7FEE7D93302088901020840
:100280002DE9F05F0546002092469B4688460646CB
:10029000814640241BE0284641464746224600F05E
:1002A00069F853465A46C01A914110D31146184670
:1002B000224600F050F82D1A67EB01084F462246FF
:1002C0000120002100F047F817EB00094E41201EE5
:1002D000A4F10104DFDC484631462A464346BDE826
:1002E000F09F40EA01039B0703D009E008C9121FF1
:1002F00008C0042AFAD203E011F8013B00F8013BE0
:10030000521EF9D27047D2B201E000F8012B491E0B
:10031000FBD270470022F6E710B513460A460446A2
:100320001946FFF7F0FF204610BD30B50B460146D9
:1003300000202022012409E021FA02F59D4205D384
:1003400003FA02F5491B04FA02F52844151EA2F12E
:100350000102F1DC30BD202A04DB203A00FA02F170
:10036000002070479140C2F1200320FA03F31943A3
:1003700090407047202A04DB203A21FA02F0002145
:10038000704721FA02F3D040C2F1200291400843A5
:1003900019467047064C074D06E0E06840F001033F
:1003A00094E8070098471034AC42F6D3FFF7F0FE0C
:1003B000286902084869020870B50446E568607C4F
:1003C00002284BD1207DFF280FD1617DFF222046DE
:1003D00002F068F968690830617D01EB410110F8AD
:1003E000210020750020E061A06105F0EBFDA1690E
:1003F000884233D9E069401CE06168690830617D5A
:1004000001EB410100EB81004068E169884211D2B3
:10041000FF202075607D401C6075607D69690978EA
:1004200088421BDB204602F019F9042020740320C7
:10043000607413E0207D401C207568690830617D80
:1004400001EB410110F82100217D884201DC0020F0
:100450002075227D617D204602F024F970BD0000E8
:1004600010B50446062C39D2DFE804F0031018203A
:1004700028301C48007808B902F024FC002000F065
:10048000C3FD4FF47A6000F0CFFB28E0012000F0BC
:10049000BBFD4FF4FA6000F0C7FB20E0022000F043
:1004A000B3FD4FF4FA6000F0BFFB18E0032000F04A
:1004B000ABFD4FF4FA6000F0B7FB10E0042000F051
:1004C000A3FD4FF4FA6000F0AFFB08E0052000F058
:1004D0009BFD4FF4FA6000F0A7FB00E000BF00BFF7
:1004E00010BD0000A400002010B50446072C41D226
:1004F000DFE804F004111921293139001F48007880
:1005000008B902F0DFFB002000F07EFD40F6485005
:1005100000F08AFB2FE0012000F076FD4FF4FA6036
:1005200000F082FB27E0022000F06EFD4FF4FA603D
:1005300000F07AFB1FE0032000F066FD4FF4FA6044
:1005400000F072FB17E0042000F05EFD4FF4FA604B
:1005500000F06AFB0FE0052000F056FD4FF4FA6052
:1005600000F062FB07E002F08FFB4FF47A6000F0CE
:100570005BFB00E000BF00BF10BD0000A400002036
:1005800005462C462146002004F0F4FF05E02046F5
:1005900001F06CFF2046FFF70FFFF8E770B5FE484B
:1005A000006840F00100FC4908600846006840F01F
:1005B000020008600846006840F004000860084631
:1005C000006840F0080008600846006840F010002D
:1005D00008600846006840F020000860084600688F
:1005E00040F0400008600846006840F08000086065
:1005F00002211C2003F062FF02211D2003F05EFF98
:1006000002211E2003F05AFF02211F2003F056FF93
:100610000521192003F052FF0221072003F04EFFAD
:10062000DE48DF4908600024362004EB4401DD4A3F
:1006300002EB81010871372004EB440102EB8101D8
:100640004871302004EB440102EB810188713320B2
:1006500004EB440102EB8101C8713E2004EB44012C
:1006600002EB81010872352004EB440102EB8101A9
:100670004872082004EB440102EB810188721020CB
:1006800004EB440102EB8101C87232223121C648D9
:1006900002F0C0F901243E2004EB4401C14A02EB00
:1006A000810108713F2004EB440102EB8101487194
:1006B000382004EB440102EB810188713B2004EBFC
:1006C000440102EB8101C8713C2004EB440102EBC0
:1006D000810108723D2004EB440102EB8101487264
:1006E000092004EB440102EB81018872112004EB24
:1006F000440102EB8101C8723A223921AB4802F071
:1007000089F90224462004EB4401A64A02EB810148
:100710000871472004EB440102EB8101487140203D
:1007200004EB440102EB81018871432004EB440196
:1007300002EB8101C871442004EB440102EB81010A
:100740000872452004EB440102EB810148720A2043
:1007500004EB440102EB81018872282004EB440180
:1007600002EB8101C87204EB840101EB04218E4A83
:1007700002EB81004222412102F04CF903244E2079
:1007800004EB4401874A02EB810108714F2004EB1E
:10079000440102EB81014871482004EB440102EB63
:1007A000810188714B2004EB440102EB8101C87187
:1007B0004C2004EB440102EB810108724D2004EB54
:1007C000440102EB810148720B2004EB440102EB6F
:1007D00081018872292004EB440102EB8101C87277
:1007E0004A224921724802F015F90424562004EBEC
:1007F00044016C4A02EB81010871572004EB44016B
:1008000002EB81014871502004EB440102EB8101AD
:100810008871532004EB440102EB8101C87154201C
:1008200004EB440102EB81010872552004EB440102
:1008300002EB81014872142004EB440102EB8101B8
:1008400088722A2004EB440102EB8101C872522213
:100850005121584802F0DEF805245E2004EB4401E3
:10086000504A02EB810108715F2004EB440102EB66
:1008700081014871582004EB440102EB8101887129
:100880005B2004EB440102EB8101C8715C2004EBA6
:10089000440102EB810108725D2004EB440102EB8C
:1008A00081014872152004EB440102EB810188723A
:1008B0002B2004EB440102EB8101C8725A2259211A
:1008C0003D4802F0A7F80624662004EB4401354AAF
:1008D00002EB81010871672004EB440102EB810106
:1008E0004871602004EB440102EB810188716320B0
:1008F00004EB440102EB8101C871642004EB440164
:1009000002EB81010872652004EB440102EB8101D6
:100910004872162004EB440102EB810188722C20FE
:1009200004EB440102EB8101C87262226121234879
:1009300002F070F807246E2004EB4401194A02EB20
:10094000810108716F2004EB440102EB81014871C1
:10095000682004EB440102EB810188716B2004EBF9
:10096000440102EB8101C8716C2004EB440102EBED
:10097000810108726D2004EB440102EB8101487291
:10098000172004EB440102EB810188722D2004EB57
:10099000440102EB810113E03038024034010020B1
:1009A000080000209C010020FC020020100700200D
:1009B000380F00204C13002060170020741B00200B
:1009C000C8726A226921724802F024F80025B1E059
:1009D00005EB45016F4A02EB81010879052103F01F
:1009E0006DFD05EB45016B4A02EB810108790021A1
:1009F00003F0EEFB05EB4501664A02EB8101487905
:100A0000052103F05BFD05EB4501624A02EB810124
:100A10004879002103F0DCFB05EB45015D4A02EB60
:100A200081018879052103F049FD05EB4501594A0B
:100A300002EB81018879002103F0CAFB05EB450137
:100A4000544A02EB8101C879052103F037FD05EB1B
:100A50004501504A02EB8101C879002103F0B8FB3F
:100A600005EB45014B4A02EB8101087A052103F0B1
:100A700025FD05EB4501474A02EB8101087A00217B
:100A800003F0A6FB05EB4501424A02EB8101487ADF
:100A9000052103F013FD05EB45013E4A02EB810100
:100AA000487A002103F094FB05EB4501394A02EB3B
:100AB0008101887A052103F001FD05EB4501354AE6
:100AC00002EB8101887A002103F082FB05EB4501EE
:100AD000304A02EB8101C87A002103F0EFFC05EBFC
:100AE00045012C4A02EB8101C87A002103F070FB1A
:100AF000294901EB45110D7005EB850000EB052040
:100B0000264901EB800005EB4501224A42F821000D
:100B100005EB4500114601EB80001F4901EB451133
:100B200048601D4800EB45111D480068001D40F855
:100B300025106D1C082DFFF64BAF01F055FD00256B
:100B400010E0182003F0B8FB15490968091D51F899
:100B50002510C860002112480068001D50F82500CB
:100B600041706D1C082DECDB0E480F490860042015
:100B70000968087001200C490968487004200A4976
:100B80000968887000210848006801F0BAFF70BD4C
:100B9000881F00209C010020FC010020FC02002096
:100BA000080000209C2300200C00002000BFFEE76E
:100BB0002DE9F04104460F4616461D46607801288F
:100BC0000AD1A078012103F003FB002001E000BF5F
:100BD000401CB0F5FA6FFADB0221204601F0A4FFB9
:100BE000290A204601F0A0FFE9B2204601F09CFF4F
:100BF0003946204601F098FF2DB1681E82B2314679
:100C0000204602F02AF80321204601F08DFF60788B
:100C1000012806D1207803F0AFF9A078002103F075
:100C2000D7FABDE8F081704770B50446002005F0A2
:100C3000A7F9054605F0C6F92044A86170BD00007B
:100C400008B500200A2301220146009002F0D2FBE1
:100C50000021042002F06EF8C82003F0E9F9002119
:100C6000084602F067F84FF4966003F0E1F90021BE
:100C7000072002F05FF800200149087008BD00005D
:100C8000A400002072B600BFFEE7000010B50022ED
:100C900001B909E0012901D10A0205E0022901D1C7
:100CA0000A0201E04FF440720E4B1B6823F44073BC
:100CB0000C4C236023461B681343236023461B68A8
:100CC00023F0F803236023461B68022444EAC0048F
:100CD0002343044C236023461B6843F48033236082
:100CE00010BD0000103C02401C48006800F4007079
:100CF000B0B11A48006820F400701849086000BFBD
:100D00000846006840F4006008600846006820F467
:100D10000060086000BF0846006840F4007008608A
:100D20000E48006800F48060B0B10C48006820F400
:100D300080600A49086000BF0846006840F480509F
:100D400008600846006820F48050086000BF08462C
:100D5000006840F48060086070470000003C02407A
:100D60000A4A126822F44072084B1A601A46126846
:100D700042F004021A601A4612684FF4803343EAC4
:100D800000231A43014B1A6070470000103C0240D8
:100D9000074A126822F44072054B1A601A4612681C
:100DA0001A601A46126842F001021A600170704718
:100DB000103C024010B50D49096821F440710B4CFC
:100DC00021602146096841F440712160214609688B
:100DD00041F001012160026000BF00BF00BFBFF30E
:100DE0006F8F00BF00BF00BF436010BD103C0240CA
:100DF000084A126822F44072064B1A601A461268BA
:100E000042F480721A601A46126842F001021A60B7
:100E100001807047103C0240084A126822F4407278
:100E2000064B1A601A46126842F400721A601A469B
:100E3000126842F001021A6001607047103C0240E3
:100E40002348006800F0100040B12248C06940F01B
:100E500010002049C86110201D4908601C48006826
:100E600000F0200040B11B48C06940F0080019495B
:100E7000C8612020164908601548006800F040004D
:100E800040B11448C06940F004001249C8614020D4
:100E90000F4908600E48006800F0800040B10D481E
:100EA000C06940F002000B49C86180200849086011
:100EB0000748006800F0020040B10648C06940F0F1
:100EC00020000449C8610220014908607047000001
:100ED0000C3C0240D02B002070B5044600250020B9
:100EE0001449C86100F084F8054609E0601C38B177
:100EF00024B100F07DF8401BA04201D9032070BD51
:100F00000D48006800F480300028EFD10A480068DE
:100F100000F0010010B10120074908600648006890
:100F200000F0F20018B1FFF78BFF0120E7E7002087
:100F3000E5E70000D02B00200C3C02402DE9F041F9
:100F400005460E46012000F034F8002407E0375D26
:100F500029193A460023184600F0FEFB641CB4F53C
:100F60007F7FF4DB002000F024F8BDE8F08110B5AD
:100F70000346002003E01C5C0C54441CA0B29042C9
:100F8000F9D310BD10B586B00446002001900220B0
:100F90000590204600F004FB03900120049000F02F
:100FA00027FC694601A800F081FB00F017F806B0A5
:100FB00010BD10B5044614B100F01AFC01E000F0B9
:100FC0000DF810BD70B50446002524B9072003F0C4
:100FD000E7F8C5B200BF00BF284670BD03480068EF
:100FE00040F000400149086000207047103C02407A
:100FF00001480068704700001C00002070477047DF
:10100000100002000027032138B50446082C54D2F2
:10101000DFE804F00454A4F9F7F6F5F400200A23FD
:1010200001220146009002F0E5F9012092230022FE
:10103000114600900B2002F0DDF940201D2308220C
:10104000002100900B2002F0D5F9FF201623082282
:10105000002100900B2002F0CDF9FF201723082279
:10106000002100900B2002F0C5F9FF201823082270
:10107000002100900B2002F0BDF9FF201923082267
:10108000002100900B2002F0B5F9FF201A2308225E
:10109000002100900B2002F0ADF9FF201B23082255
:1010A000002100900B2002F0A5F980200A230122E4
:1010B00000210090084602F09DF93CE200200A233E
:1010C00001220146009002F095F9012092230022AE
:1010D000114600900B2002F08DF940201D230822BC
:1010E000002100900B2002F085F900201623082231
:1010F000014600900B2002F07DF900201723082202
:10110000014600900B2002F075F9002018230822F8
:10111000014600900B2002F06DF9002019230822EF
:10112000014600900B2002F065F900201A230822E6
:10113000014600900B2002F05DF900201B230822DD
:10114000014600900B2002F055F980200A2301226D
:1011500000210090084602F04DF9ECE100200A233E
:1011600001220146009002F045F90120922300225D
:10117000114600900B2002F03DF940201D2308226B
:10118000002100900B2002F035F9FF2016230822E1
:10119000002100900B2002F02DF9002017230822D7
:1011A000014600900B2002F025F9002018230822A8
:1011B000014600900B2002F01DF9FF2019230822A0
:1011C000002100900B2002F015F900201A230822BC
:1011D000014600900B2002F00DF900201B2308228D
:1011E000014600900B2002F005F980200A2301221D
:1011F00000210090084602F0FDF89CE14BE1F2E08E
:10120000A1E050E0FFE700200A2301220146009000
:1012100002F0F0F8012092230022114600900B20EA
:1012200002F0E8F840201D230822002100900B2046
:1012300002F0E0F8002016230822014600900B205F
:1012400002F0D8F8FF2017230822002100900B207D
:1012500002F0D0F8002018230822014600900B204D
:1012600002F0C8F8002019230822014600900B2044
:1012700002F0C0F8FF201A230822002100900B2062
:1012800002F0B8F800201B230822014600900B2032
:1012900002F0B0F880200A230122002100900846C5
:1012A00002F0A8F847E100200A230122014600903D
:1012B00002F0A0F8012092230022114600900B209A
:1012C00002F098F840201D230822002100900B20F6
:1012D00002F090F8002016230822014600900B200F
:1012E00002F088F8002017230822014600900B2006
:1012F00002F080F8FF2018230822002100900B2024
:1013000002F078F8002019230822014600900B20F3
:1013100002F070F800201A230822014600900B20EA
:1013200002F068F8FF201B230822002100900B2008
:1013300002F060F880200A23012200210090084674
:1013400002F058F8F7E000200A230122014600903D
:1013500002F050F8022092230022114600900B2048
:1013600002F048F8002001230246014600900B20BD
:1013700002F040F8202002230022114600900B20AA
:1013800002F038F8002003230246014600900B20AB
:1013900002F030F8FC2012230022114600900B20AE
:1013A00002F028F8002013230246014600900B208B
:1013B00002F020F83F2014230022114600900B2059
:1013C00002F018F8FF204F230022114600900B2056
:1013D00002F010F880200A23012200210090084624
:1013E00002F008F8A7E000200A230122014600903D
:1013F00002F000F8012092230022114600900B20F9
:1014000001F0F8FF002099230122014600900B20F3
:1014100001F0F0FF022001230246002100900B2082
:1014200001F0E8FF412002231A46002100900B2022
:1014300001F0E0FF1E2003230222002100900B2078
:1014400001F0D8FF3F201D230822002100900B202F
:1014500001F0D0FF242010230822002100900B204F
:1014600001F0C8FF422011230822002100900B2028
:1014700001F0C0FF012040230322002100900B2037
:1014800001F0B8FF80200A230122002100900846C5
:1014900001F0B0FF4FE000200A2301220146009036
:1014A00001F0A8FF012092230022114600900B209A
:1014B00001F0A0FF40201D230822002100900B20F6
:1014C00001F098FF3F2016230822002100900B20F6
:1014D00001F090FF3F2017230822002100900B20ED
:1014E00001F088FF3F2018230822002100900B20E4
:1014F00001F080FF3F2019230822002100900B20DB
:1015000001F078FF3F201A230822002100900B20D1
:1015100001F070FF3F201B230822002100900B20C8
:1015200001F068FF80200A23012200210090084674
:1015300001F060FF00BF00BF38BD000038B502F009
:1015400068FE04463CB900201349087000211920A8
:1015500002F03EFE1DE010480078D0B9282002F0CD
:1015600067FD02F056FE04469CB101200A4908704E
:1015700018208DF800008DF801400121192002F09B
:1015800027FE022269460548006801F033FB204629
:1015900038BD0020FCE70000040000200C00002003
:1015A000014600202C4A914203D2B1F1006F00D3D2
:1015B00050E02A4A914204D2274A914201D30120A5
:1015C00048E0274A914204D2244A914201D30220A2
:1015D00040E0244A914204D2214A914201D303209F
:1015E00038E0214A914204D21E4A914201D304209C
:1015F00030E01E4A914204D21B4A914201D3052099
:1016000028E01B4A914204D2184A914201D3062095
:1016100020E0184A914204D2154A914201D3072092
:1016200018E0154A914204D2124A914201D308208F
:1016300010E0124A914204D20F4A914201D309208C
:1016400008E00F4A914204D20C4A914201D30A2089
:1016500000E00B20704700000040000800800008F8
:1016600000C0000800000108000002080000040893
:10167000000006080000080800000A0800000C0826
:1016800000000E08014691F83500022803D08020A2
:10169000486501207047052081F83500086800681A
:1016A00020F001000A6810600020F3E72DE9F04106
:1016B00004460E460127002500BF2548007E01286C
:1016C00002D10220BDE8F08101202149087600BF47
:1016D0004CF25030FFF700FC0746002F31D1401E7E
:1016E0003060206801280FD1207C6168FFF738FB4B
:1016F0004CF25030FFF7F0FB07461648006820F028
:101700000400144908601AE0A56812E0217C28460C
:10171000FFF7BCFA4CF25030FFF7DEFB07460D48EE
:10172000006820F0FA000B4908600FB1356005E051
:101730006D1CD4E902100844A842E7D800BFFFF7A7
:10174000D3FA00BF00200249087600BF3846B9E747
:10175000D02B0020103C02402DE9F04106460F46F8
:1017600014461D464FF0010800BF1F48007E0128A7
:1017700002D10220BDE8F08101201B49087600BF9C
:101780004CF25030FFF7A8FB8046B8F1000F23D190
:1017900026B9E1B23846FFF7FBFA12E0012E04D178
:1017A000A1B23846FFF724FB0BE0022E04D12146FC
:1017B0003846FFF731FB04E022462B463846FFF758
:1017C000F9FA4CF25030FFF787FB80460748006873
:1017D00020F001000549086000BF0020024908769A
:1017E00000BF4046C6E70000D02B0020103C02405E
:1017F00000200949096801F0004159B10749064A2A
:101800000C3A1160064911600349096801F0004172
:1018100001B1012070470000103C024023016745E0
:10182000AB89EFCDF8B502460B4600250024002019
:101830000021DCE0012606FA01F51E6806EA05042F
:10184000AC4273D15E68012E08D05E68022E05D0CE
:101850005E68112E02D05E68122E13D190684F0080
:101860000326BE40B0434F00DE68BE403043906068
:10187000506801268E40B0431E79C6F300168E4094
:1018800030435060D0684F000326BE40B0434F0045
:101890009E68BE403043D0605E68022E02D05E6813
:1018A000122E13D1CF0802F1200656F827004E075A
:1018B000F70E0F26BE40B0434F07FF0E1E69BE4015
:1018C0003043CF0802F1200646F8270010684F0089
:1018D0000326BE40B0431E7906F003064F00BE400B
:1018E000304310605E6806F08056B6F1805F7DD1AF
:1018F00000BF00260096404E366846F480463E4FB4
:101900003E603E46366806F48046009600BF00BF43
:101910003A4E8F0856F827008E07370F0F26BE4025
:10192000B043374EB24202D1002624E05EE0354E8D
:10193000B24201D101261EE0334EB24201D102264D
:1019400019E0324EB24201D1032614E0304EB242C9
:1019500001D104260FE02F4EB24201D105260AE044
:101960002D4EB24201D1062605E02C4EB24201D1E5
:10197000072600E008268F073F0FBE4030431F4E6A
:101980008F0846F82700264E3068A0435E6806F4AC
:101990008036B6F5803F00D12043214E3060361DA1
:1019A0003068A0435E6806F40036B6F5003F00D10B
:1019B00020431B4E361D3060361D3068A0435E68E4
:1019C00006F48016B6F5801F00D12043144E083669
:1019D0003060361D3068A0435E6806F40016B6F528
:1019E000001F00D120430E4E0C363060491C1029D8
:1019F000FFF420AFF8BD0000443802400838014031
:101A0000000002400004024000080240000C0240B6
:101A1000001002400014024000180240001C024066
:101A2000003C014003480068034909780844014923
:101A3000086070471C0000202400002010B50D48ED
:101A4000006840F400700B4908600846006840F4E4
:101A5000806008600846006840F4807008600320D9
:101A600000F0C8F8002000F007F800F04BF8002064
:101A700010BD0000003C024070B588B0044600254F
:101A80000026002221462C2000F076F82C2000F0C1
:101A900063F800BF002001901648006840F0020083
:101AA000144908600846006800F00200019000BF79
:101AB00000BF02A903A800F073F900F0A9F94500DE
:101AC0000D48B5FBF0F0461E0C480D49086040F289
:101AD000E7310B48C160466000210161816000F080
:101AE000FFF920B9064800F016FA08B070BD0120D1
:101AF000FBE700004438024040420F000004014070
:101B0000F400002008B500BF0020009011480068D4
:101B100040F480400F4908600846006800F48040A7
:101B2000009000BF00BF00BF00200090081F0068A9
:101B300040F08050091F08600846006800F080509F
:101B4000009000BF00BF00220F21901E00F014F88B
:101B500008BD00004438024001460846002809DB61
:101B600000F01F0301229A4043099B0003F1E02388
:101B7000C3F8002100BF70472DE9F05F80460D4695
:101B80001646002702F020FA074639462A46334611
:101B900001F00700C0F1070ABAF1040F02D94FF0B3
:101BA000040A01E0C0F1070AD14600F1040ABAF1C3
:101BB000070F02D24FF0000A01E0A0F1030AD44659
:101BC0004FF0010A0AFA09FAAAF1010A0AEA020A1E
:101BD0000AFA0CFA4FF0010B0BFA0CFBABF1010BFC
:101BE0000BEA030B4AEA0B042146404602F0F4F9E3
:101BF000BDE8F09F00BF00F00702064B19684FF6E2
:101C0000FF031940044B0B4343EA0221014B1960C7
:101C100000BF70470CED00E00000FA0570B5044607
:101C20000D460CB9012070BD5848006800F00F0047
:101C3000A84209D255490D700846006800F00F000F
:101C4000A84201D00120EEE7207800F0020002282F
:101C50001DD1207800F00400042805D14C4800680C
:101C600040F4E0504A490860207800F00800082855
:101C700005D14748006840F4604045490860444841
:101C8000006820F0F000A16808434149086020780E
:101C900000F00100A8B36068012807D13C4808386B
:101CA0000068C0F34040B8B90120BCE76068022872
:101CB00002D06068032807D1354808380068C0F3AF
:101CC000406048B90120AEE7314808380068C0F3E9
:101CD000400008B90120A6E72D48006820F0030065
:101CE000616808432A490860FFF782F9064609E05F
:101CF000FFF77EF9801B41F28831884202D9032028
:101D000091E707E02248006800F00C006168B0EB42
:101D1000810FEDD11D48006800F00F00A84209D9DD
:101D20001A490D700846006800F00F00A84201D063
:101D3000012078E7207800F00400042807D1144837
:101D4000006820F4E050E1680843114908602078F9
:101D500000F00800082808D10D48006820F4604011
:101D6000216940EAC1000A49086000F061F80849A9
:101D70000968C1F30311074A515CC840064908606D
:101D800006480068FFF778FE00204CE7003C024060
:101D90000838024074640208280000202000002057
:101DA0000F2202600D4A126802F0030242600B4AE1
:101DB000126802F0F0028260084A126802F4E052EF
:101DC000C260064A126802F46042D2080261044A04
:101DD000126802F00F020A607047000008380240E3
:101DE000003C0240014800687047000028000020C5
:101DF00000B5FFF7F7FF04490968C1F38221034AE0
:101E0000515CC84000BD00000838024084640208EC
:101E100000B5FFF7E7FF04490968C1F34231034AFF
:101E2000515CC84000BD00000838024084640208CC
:101E30002DE9F047002400250026A146254800682A
:101E400000F00C0020B1042805D008283AD105E0A4
:101E5000DFF8849039E0DFF8849036E01D48001FF9
:101E6000006800F03F041B48001F006800F4800079
:101E700078B11A481749091F0968C1F38811A0FBF6
:101E800001700146224600233846FEF7F9F905465F
:101E90000EE011480F49091F0968C1F38811A0FB22
:101EA00001700146224600233846FEF7E9F905464F
:101EB0000848001F0068C0F30140401C4600B5FB05
:101EC000F6F902E0DFF8109000BF00BF4846BDE819
:101ED000F0870000083802400024F40000127A0065
:101EE00010B504460CB9012010BD94F83D0028B986
:101EF000002084F83C00204600F00CF8022084F812
:101F00003D00211D206801F0A1FA012084F83D0068
:101F10000020E9E7704701460868C06840F001000A
:101F20000B68D8600868806800F00702062A05D0B0
:101F30000868006840F001000B68186000207047D6
:101F4000704710B5044620680069C0F34000D8B15E
:101F50002068C068C0F34000B0B16FF00200216893
:101F60000861012020772068806900F0030018B123
:101F70002046FFF7E5FF05E0204600F0ADF82046DB
:101F800000F0ABF80020207720680069C0F38000E3
:101F9000D8B12068C068C0F38000B0B16FF0040011
:101FA00021680861022020772068806900F4407071
:101FB00018B12046FFF7C4FF05E0204600F08CF87A
:101FC000204600F08AF80020207720680069C0F3DE
:101FD000C000D8B12068C068C0F3C000B0B16FF0D5
:101FE000080021680861042020772068C06900F09B
:101FF000030018B12046FFF7A3FF05E0204600F0DC
:102000006BF8204600F069F800202077206800690E
:10201000C0F30010D8B12068C068C0F30010B0B1A0
:102020006FF0100021680861082020772068C069DF
:1020300000F4407018B12046FFF782FF05E020460B
:1020400000F04AF8204600F048F800202077206889
:10205000006900F0010058B12068C06800F001007C
:1020600030B16FF0010021680861204600F036F8B9
:1020700020680069C0F3C01058B12068C068C0F380
:10208000C01030B16FF08000216808612046FEF773
:10209000B5FF20680069C0F3801058B12068C0689F
:1020A000C0F3801030B16FF0400021680861204615
:1020B00000F020F820680069C0F3401058B1206893
:1020C000C068C0F3401030B16FF020002168086193
:1020D0002046FEF794FF10BD7047704710B50446C8
:1020E00003492068884201D1FFF79CFC10BD000025
:1020F00000040140704770472DE9F047044620680E
:1021000005682068C668206847694FF00008C14626
:1021100005F00F08B8F1000F0AD105F0200038B122
:1021200006F0200020B1204601F04AFCBDE8F0870F
:10213000B8F1000F72D007F0010018B906F49070E2
:1021400000286BD005F0010030B106F4807018B1A2
:10215000E06B40F00100E06305F0040030B107F0EF
:10216000010018B1E06B40F00200E06305F00200EE
:1021700030B107F0010018B1E06B40F00400E063FB
:1021800005F0080048B106F0200010B907F0010082
:1021900018B1E06B40F00800E063E06B70B305F04D
:1021A000200028B106F0200010B1204601F008FC04
:1021B00020684069C0F38019E06B00F0080010B996
:1021C000B9F1000F23D0204601F0DAFB2068406906
:1021D00000F04000402816D12068406920F04000FF
:1021E00021684861606B50B11748616B0865606B8E
:1021F000FFF748FA10B1606B016D88470CE020468C
:10220000FFF779FF08E02046FFF775FF04E020465E
:10221000FFF771FF0020E06388E7FFE705F080002B
:1022200030B106F0800018B1204601F011FE7DE7C4
:1022300005F0400030B106F0400018B1204601F032
:10224000AFFB73E700BF71E76D39020810B50446B4
:102250000CB9012010BDA06900B100E000BF94F8E6
:10226000390028B9002084F83800204600F028F80A
:10227000242084F839002068C06820F400502168C8
:10228000C860204601F0F0FB2068006920F490400F
:10229000216808612068406920F02A0021684861AF
:1022A0002068C06840F400502168C8600020E063E6
:1022B000202084F8390084F83A000020CAE70000A2
:1022C00010B586B00446142101A8FEF723F81F4973
:1022D0002068884237D100BF002000901C48006869
:1022E00040F400201A4908600846006800F4002005
:1022F000009000BF00BF00BF0020009014481038BD
:10230000006840F001001249103908600846006872
:1023100000F00100009000BF00BF032001900220E8
:10232000029001200390032004900820059001A949
:102330000848FFF777FA002205213420FFF71CFC3C
:102340003420FFF709FC06B010BD0000004C00402F
:1023500040380240000002407047704700BFFEE76F
:1023600070B50446A078002102F0A8F800BF60789C
:10237000002102F0A3F8204600F04CF8012801D01B
:10238000002070BD01F004FFA07801F009FF08B93A
:10239000002500E001256078062102F08FF801F0A9
:1023A000F7FE2846EDE710B50446A078002102F0BC
:1023B00085F800BF6078002102F080F801F0E8FEA7
:1023C000A078062102F07AF801F0E2FE607806219A
:1023D00002F074F801F0DCFE10BD10B50446A078E0
:1023E000062102F06BF800BF6078062102F066F863
:1023F00000BF6078002102F061F801F0C9FE01F031
:10240000C7FEA078002102F059F801F0C1FE01F0EA
:10241000BFFE10BD70B50446FF2504E0681EC5B2BE
:102420000DB9002070BD607801F0BAFE0028F5D02B
:102430000120F7E72DE9F04704460D461646002037
:1024400003F09EFD0746D7F804804FF0000902F024
:10245000F7FE33462A462146D8F8000000F021FB5B
:10246000814602F017FF4846BDE8F08770B5044684
:10247000E568E07C00287CD0E07C012806D00228BA
:102480001FD004284ED008281AD17CE0607C88B97F
:10249000204600F0B1F8607810B90220207406E000
:1024A000012020740020A074204600F041F9012092
:1024B000607405E0204600F02DF90020207460745F
:1024C0008EE0607800B98BE0607C012813D1A17C9C
:1024D00068694078401E814202DB0020A07402E05F
:1024E000A07C401CA07468694068A27C815C204686
:1024F00000F0FEF815E0607C022802D0607C032822
:102500000FD10020A074E06840694068A27C815C23
:10251000204600F0EDF8204600F0B2F801202074CB
:1025200060745DE0607800B95AE0607C012811D1E8
:10253000A07C20B968694078401EA07402E0A07CAD
:10254000401EA07468694068A27C815C204600F04F
:10255000CFF817E0607C022802D0607C032811D1FC
:102560000020A074E06840694068A27C815C20463D
:1025700000E038E000F0BCF8204600F081F80120CF
:10258000207460742CE0607800B929E0607C012838
:1025900009D10020A0616075FF2020750020E06156
:1025A0000220607416E0607C02280CD1607D401C23
:1025B0006075607D69690978884201DB002060757B
:1025C000FF20207506E0607C032803D100206075A1
:1025D00002206074607C022801D10320207400BFB7
:1025E00000BF0020E07470BD10B5024801F072F920
:1025F00010BD00000C69020870B5054600260024D5
:102600001AE015480068283050F82400C06890B1DE
:1026100011490968283151F82410C86880470646D6
:102620004EB10D480068283050F82400A860EE60D4
:102630000120687006E0641C0748006890F82400D8
:10264000A042DEDC00BF0448006890F82400A042ED
:1026500001D10020687070BD0800002070B50446EC
:10266000E568A66805B970BD06B9FCE76869D0F8E9
:10267000C80018B16969D1F8C800804700BFF2E707
:1026800070B50446E568A66805B970BD06B9FCE7F3
:102690006869D0F8CC0018B16969D1F8CC008047DE
:1026A00000BFF2E72DE9F04105460C461746EE68FB
:1026B000D5F808800EB9BDE8F081B8F1000F00D15F
:1026C000F9E7102C00DBF6E77069083004EB4401F1
:1026D00000EB8100806800B9EDE77069083004EB19
:1026E000440200EB820081683846884700BFE2E779
:1026F0002DE9F04104460E46E768A5680FB9BDE82C
:10270000F08105B9FBE7A86810B13046A968884791
:1027100000BFF4E770B50446E668A56806B970BD69
:1027200005B9FCE7286808B12868804700BFF6E7CC
:1027300070B50446E668A56806B970BD05B9FCE742
:10274000686808B16868804700BFF6E78AB019E199
:10275000002411E18C480068001D50F82450287CAA
:10276000072810D2DFE800F004102234699ED3005D
:10277000002002A941F824000DF804006968C87A15
:10278000002101F09BFEF5E0002002A941F82400A1
:1027900001200DF804006968C87A012101F018FDD4
:1027A0006968C87A052101F089FEE3E0002002A9EA
:1027B00041F8240002200DF804006968C87A00215D
:1027C00001F006FD6968C87A052101F077FED1E0C5
:1027D00002A850F8240038B903F0F4FB00F5487063
:1027E00002A941F8240027E003F0ECFB02A951F80C
:1027F0002410884220D903F0E5FB00F5487002A9B7
:1028000041F824001DF80400012808D100200DF82B
:1028100004006968C87A002101F050FE0CE0012034
:102820000DF804006968C87A012101F0D1FC6968DB
:10283000C87A052101F042FE9CE002A850F824006D
:1028400038B903F0BFFB00F5967002A941F82400E7
:1028500027E003F0B7FB02A951F82410884220D9E1
:1028600003F0B0FB00F5967002A941F824001DF8B2
:102870000400012808D100200DF804006968C87A16
:10288000002101F01BFE0CE001200DF80400696836
:10289000C87A012101F09CFC6968C87A052101F021
:1028A0000DFE67E002A850F8240038B903F08AFB57
:1028B00000F5487002A941F8240027E003F082FBEC
:1028C00002A951F82410884220D903F07BFB00F5BF
:1028D000487002A941F824001DF80400022808D11C
:1028E00000200DF804006968C87A002101F0E6FDB7
:1028F0000CE002200DF804006968C87A002101F09C
:1029000067FC6968C87A052101F0D8FD32E002A8A9
:1029100050F8240030B903F055FBC83002A941F843
:10292000240026E003F04EFB02A951F8241088424F
:102930001FD903F047FBC83002A941F824001DF855
:102940000400022808D100200DF804006968C87A44
:10295000002101F0B3FD0CE002200DF804006968CD
:10296000C87A002101F034FC6968C87A052101F0B9
:10297000A5FD00BF00BF641C082CFFF6EBAE0120D4
:1029800002F07CFDE4E600000800002008B500BF6E
:10299000002000900E48006840F080000C4908605C
:1029A0000846006800F08000009000BF00BF00BF34
:1029B000002000900846006840F0010008600846CA
:1029C000006800F00100009000BF00BF08BD0000DB
:1029D0003038024010B50B480B4908604FF4E13025
:1029E0004860002108488160C16001610C2141619B
:1029F00000218161C161FFF729FC08B1FEF742F9AE
:102A000010BD0000004C0040B400002000BFFEE7F5
:102A100000BFFEE770B504460D4616466570A67009
:102A20006078002101F0D4FBA078002101F0D0FBF8
:102A30006078002101F042FDA078002101F03EFD08
:102A400070BD2DE9F04104460D46002700261FE029
:102A500005F0800020B1A078002101F02FFD03E0F7
:102A6000A078062101F02AFD6806050E01F090FB12
:102A70006078002101F022FD01F08AFB01F088FB63
:102A80006078062101F01AFD01F082FB701CC6B2CD
:102A9000082EDDDB2046FFF763FC07463846BDE81D
:102AA000F0812DE9F04780460D4616461F464FF04F
:102AB00000094046FFF777FC6806010E4046FFF725
:102AC000C0FF8146002406E0315D4046FFF7B9FFB4
:102AD0008146601CC4B2BC42F6DB4046FFF77DFC79
:102AE000B9F1000F02D10120BDE8F0870020FBE71B
:102AF00070B504460D46207801F01EFA28700120BA
:102B000070BD70B504460D46C4F81054A078052178
:102B100001F0D4FC20780022012101F0CDF9A07849
:102B2000002101F055FB70BD70B504460D462078BC
:102B3000294601F00EFA012070BD38B504466946F9
:102B40002046FFF7D5FFFEF753FA0546A068401D63
:102B5000A84201D20020E070A560E078072846D2A4
:102B6000DFE800F00445450B122639009DF800000F
:102B7000022801D10320E0703AE09DF80000A4F89B
:102B80000C040420E07033E094F80C049DF800106D
:102B900001EB0020A4F80C040020A4F80E04B4F803
:102BA0000C0410B90620E07001E00520E0701FE081
:102BB0009DF80010B4F80E24501CA4F80E0404F183
:102BC0000C008154B4F80E04B4F80C14884201D1FE
:102BD0000620E0700CE00020E0709DF80000032863
:102BE00002D10120207101E00020207100E000BF2F
:102BF00000BF38BD70B504460E4615466078012802
:102C00000AD1A078012101F0E3FA002001E000BF21
:102C1000401CB0F5FA6FFADB02212046FFF784FF73
:102C2000290A2046FFF780FFE9B22046FFF77CFF24
:102C300025B12A463146204600F00FF803212046F0
:102C4000FFF772FF6078012806D1207801F094F92F
:102C5000A078002101F0BCFA70BD2DE9F0410446D6
:102C60000E461746002504E0715D207801F071F9E9
:102C70006D1CBD42F8DB6078012802D1207801F09C
:102C80007BF90120BDE8F08108B500200A2301226C
:102C90000146009000F0AEFB0021042000F04AF84D
:102CA0000021072000F046F8C82001F0C1F90021FA
:102CB000084600F03FF800200149087008BD0000F8
:102CC000A400002038B50121002000F033F8C8200E
:102CD00001F0AEF90020FEF775F9044614B900F0D2
:102CE00082F801E000F071F9642001F0A1F9002000
:102CF000FEF78AF980200A2301220021009008466D
:102D000000F078FB642001F093F90121072000F026
:102D100011F801200149087038BD0000A40000200E
:102D2000017B182902D1417B014A117070470000D4
:102D3000100000202DE9F04106460D46002003F06A
:102D40001FF907467C68082E4AD2DFE806F004091E
:102D50000E191E2328442079294601F039FA3FE054
:102D60006079294601F034FA3AE0207A294601F0E8
:102D70002FFA387818B929463E2001F029FA2FE0B9
:102D8000607A294601F024FA2AE0E079294601F028
:102D90001FFA25E0A079294601F01AFA20E025B9AA
:102DA000E07A002101F08AFB14E0012D08D1E07ADD
:102DB000012101F00DFAE07A052101F07FFB09E025
:102DC000022D07D1E07A002101F002FAE07A052114
:102DD00001F074FB04E0A07A294601F0F9F900BF84
:102DE00000BFBDE8F08108B587207423002211469A
:102DF0000090012000F0FEFA6220752300221146A7
:102E00000090012000F0F6FABD20B3230022114605
:102E10000090012000F0EEFA0020B42302460146A3
:102E20000090012000F0E6FABD20B52300221146F3
:102E30000090012000F0DEFA0020B6230246014691
:102E40000090012000F0D6FAF5201423002211464C
:102E50000090082000F0CEFA03201523002211462E
:102E60000090082000F0C6FAF5204C2300221146FD
:102E70000090082000F0BEFA03204D2300221146E6
:102E80000090082000F0B6FA0F20C323002211465C
:102E900000900A2000F0AEFA0620C7230022114657
:102EA00000900A2000F0A6FAEF209023002211469D
:102EB00000900E2000F09EFA05209123002211467A
:102EC00000900E2000F096FA8020962300221146F2
:102ED00000900E2000F08EFA0D209723002211465C
:102EE00000900E2000F086FA1C209C230022114640
:102EF00000900E2000F07EFA01209D230022114652
:102F000000900E2000F076FADF20A2230022114666
:102F100000900E2000F06EFA0420A3230022114638
:102F200000900E2000F066FA03209823002211463C
:102F300000900B2000F05EFA0A209923002211462F
:102F400000900B2000F056FA1E209A230022114612
:102F500000900B2000F04EFA47209B2300221146E0
:102F600000900B2000F046FA20209C2300221146FE
:102F700000900B2000F03EFA30209D2300221146E5
:102F800000900B2000F036FA00209E2302460146F6
:102F900000900B2000F02EFA44200123002211465D
:102FA00000900B2000F026FA442002230022114654
:102FB00000900B2000F01EFA40200323002211464F
:102FC00000900B2000F016FA08BD08B5FE2074230F
:102FD000002211460090012000F00CFAD220752347
:102FE000002211460090012000F004FA5520B3237E
:102FF000002211460090012000F0FCF90120B423CA
:1030000000221146009000F0F5F95520B52300226A
:1030100011460090012000F0EDF90120B6230022B6
:103020001146009000F0E6F91F20142300221146FB
:103030000090082000F0DEF9072015230022114639
:103040000090082000F0D6F91F204C2300221146E2
:103050000090082000F0CEF907204D2300221146F1
:103060000090082000F0C6F92020C323002211465A
:1030700000900A2000F0BEF91020C723002211465C
:1030800000900A2000F0B6F9B920902300221146E2
:1030900000900E2000F0AEF90C2091230022114682
:1030A00000900E2000F0A6F9B620962300221146CB
:1030B00000900E2000F09EF91C209723002211465C
:1030C00000900E2000F096F962209C230022114609
:1030D00000900E2000F08EF902209D230022114660
:1030E00000900E2000F086F90420A2230022114651
:1030F00000900E2000F07EF90D20A323002211463F
:1031000000900E2000F076F99F20982300221146AF
:1031100000900B2000F06EF9202099230022114628
:1031200000900B2000F066F974209A2300221146CB
:1031300000900B2000F05EF9B5209B230022114681
:1031400000900B2000F056F968209C2300221146C5
:1031500000900B2000F04EF930209D2300221146F4
:1031600000900B2000F046F9FA209E230022114621
:1031700000900B2000F03EF911200123002211469F
:1031800000900B2000F036F9112002230022114696
:1031900000900B2000F02EF910200323002211468E
:1031A00000900B2000F026F908BD00F0BBF900BF2D
:1031B000012001F0B7F8FBE710B500BF502080F305
:1031C0001188BFF34F8FBFF36F8F00BF02F000FF76
:1031D00018B14FF080500449086000BF002080F310
:1031E000118800BF10BD000004ED00E000250024A0
:1031F0000020494908708EE0FEF7A0F9054615B990
:1032000045480078A8B14448007820B14248057884
:1032100000204149087001F019F850B9002006E07B
:103220003E490968091D51F82010CD74401C08283A
:10323000F6DB3B480068007901286CD1002408E0E7
:10324000374800680C30611C405C36490855601CEA
:1032500084B233480068B0F80C04A042F0DC304877
:103260000068007B10284EDA2D480068007B01289A
:1032700002D0022846D11DE000BF00BF00BF00BF42
:1032800000BFBFF34F8F00BF00BF00BF26480068DC
:1032900000F4E06025490843001D2349086000BF91
:1032A00000BF00BFBFF34F8F00BF00BF00BF00BF14
:1032B00000BFFDE71E48FDF765FE1A491C48FDF7F3
:1032C0003DFE002404E0002016490855601C84B22D
:1032D00013480068B0F80C04A042F4DC1048006801
:1032E000B0F80C04421E0F491148FDF740FE0C488F
:1032F0000068B0F80C340B4A022109480068FDF759
:1033000057FC00BF03E006480068FFF709FD0020F6
:103310000349096808716FE71000002008000020C9
:103320000C000020B02700200CED00E00000FA05A2
:103330000000060800B593B0302107A8FCF7EAFFAB
:10334000142102A8FCF7E6FF00BF002001902048EE
:10335000006840F080501E4908600846006800F090
:103360008050019000BF00BF00BF002001901948AD
:10337000006840F48040174908600846006800F47F
:103380008040019000BF00BF01200790000408901A
:1033900002200D9041050E9104210F91A82110915A
:1033A00002211191042112910F200290022003901A
:1033B000002004904FF4A050059088020690072149
:1033C00002A8FEF72BFC08B1FDF75CFC13B000BDB2
:1033D00040380240007000400548006840F470002A
:1033E000034908604FF00060014980390860704768
:1033F00088ED00E02DE9FC4104460D4616461F46C7
:10340000DDF8208000208DF800008DF801408DF857
:1034100002508DF803608DF80470052269463E2045
:10342000FFF708F800208DF800008DF801800222D7
:1034300069464420FEF7FEFFBDE8FC8110B5024856
:10344000FEF77FFD10BD0000F400002010B50268FB
:10345000294B98420ED0B0F1804F0BD0274B9842A9
:1034600008D0274B984205D0264B984202D0264BD5
:10347000984203D122F070024B681A431E4B9842C7
:1034800020D0B0F1804F1DD01C4B98421AD01C4B5D
:10349000984217D01B4B984214D01B4B984211D026
:1034A0001A4B98420ED01A4B98420BD0194B9842A7
:1034B00008D0194B984205D0184B984202D0184BAF
:1034C000984203D122F44072CB681A4322F0800361
:1034D0004C6943EA040202608B68C3620B68836232
:1034E000054B984202D0084B984201D10B69036307
:1034F0000123436110BD00000000014000040040B2
:1035000000080040000C0040000401400040014061
:10351000004401400048014000180040001C0040E9
:10352000002000407CB50126C748047804F00F0055
:10353000211101EB810100EB4100C4B204F08000D5
:10354000B0B1C249C87A012100F042FEBF49C87A31
:10355000052100F0B3FFBD4991F83B00012100F0C7
:1035600037FEBA4991F83B00052100F0A7FF0AE0B9
:10357000B649C87A002100F0A1FFB44991F83B0098
:10358000002100F09BFF04F04000B0B1AF49C87DBE
:10359000012100F01DFEAD49C87D052100F08EFF20
:1035A000AA4991F84700012100F012FEA74991F8BD
:1035B0004700052100F082FF0AE0A449C87D0021F0
:1035C00000F07CFFA14991F84700002100F076FF50
:1035D00004F02000C0B19D4991F82300012100F0C2
:1035E000F7FD9A4991F82300052100F067FF9749FC
:1035F00091F85300012100F0EBFD944991F853003C
:10360000052100F05BFF0BE0904991F823000021B9
:1036100000F054FF8D4991F85300002100F04EFF57
:1036200004F01000C0B1894991F82F00012100F089
:10363000CFFD864991F82F00052100F03FFF834917
:1036400091F85F00012100F0C3FD804991F85F000F
:10365000052100F033FF0BE07C4991F82F00002199
:1036600000F02CFF794991F85F00002100F026FF5F
:103670004FF47A7001F002FF04F00800B0B1734912
:10368000C87A002100F0A4FD7049C87A052100F035
:1036900015FF6E4991F83B00002100F099FD6B4940
:1036A00091F83B00052100F009FF0AE06749C87A5C
:1036B000002100F003FF654991F83B00002100F074
:1036C000FDFE04F00400B0B16049C87D002100F0A7
:1036D0007FFD5E49C87D052100F0F0FE5B4991F851
:1036E0004700002100F074FD584991F8470005217A
:1036F00000F0E4FE0AE05549C87D002100F0DEFE3E
:10370000524991F84700002100F0D8FE04F0020071
:10371000C0B14E4991F82300002100F059FD4B49FA
:1037200091F82300052100F0C9FE484991F85300A3
:10373000002100F04DFD454991F85300052100F0AE
:10374000BDFE0BE0414991F82300002100F0B6FED8
:103750003E4991F85300002100F0B0FE04F0010052
:10376000C0B13A4991F82F00002100F031FD3749EE
:1037700091F82F00052100F0A1FE344991F85F0077
:10378000002100F025FD314991F85F00052100F08E
:1037900095FE0BE02D4991F82F00002100F08EFEE0
:1037A0002A4991F85F00002100F088FE4FF47A70FA
:1037B00001F064FE01F044FD2548182100234FF478
:1037C0008072CDE9001023A1244802F049FB06468F
:1037D000012E04D022A000F0E7FB00207CBD0025D4
:1037E00019E0254800EB85001821CDE90010234899
:1037F0000068001D50F82530802221A1234802F0E6
:103800002FFB0646012E05D0294621A000F0CCFB57
:103810000020E3E76D1C082DE3DB2448182100237A
:103820004FF48072CDE9001021A1234802F018FB6B
:103830000646012E04D021A000F0B6FB0020CDE703
:1038400001F028FD0120C9E7001002089C010020BA
:103850001400002053797354736B0000ED3102089B
:103860005379735461736B2063726561746520666C
:1038700061696C210A000000B02B002008000020C4
:103880004167696E6754736B000000008105020890
:103890004167696E672564205461736B20637265AC
:1038A000617465206661696C210A000018000020BF
:1038B0004C656454736B00004D2702084C656454DA
:1038C00061736B20637265617465206661696C2148
:1038D0000A0000000949096891F82420074909688D
:1038E00091F82410491C054B1B6883F824100349E8
:1038F0000968283141F822007047000008000020C4
:1039000038B5184800680068C0F3401515480068CD
:10391000C06800F0200495B18CB113480068FFF72F
:103920000CF900BF002000900E480068006800906D
:103930000C4800684068009000BF00BF38BD0948CF
:1039400000680068C0F3801030B106480068C068A5
:1039500000F0400000B1F1E70248FEF7CDFB00BFE8
:10396000ECE70000B40000200C00002070B5054614
:10397000AC6B0020E085E0842046FEF7BCFB70BD08
:103980000168C96821F490710268D16001684969D1
:1039900021F0010102685161202180F83A1070473E
:1039A00010B504462068C06820F040002168C86057
:1039B000202084F839002046FEF7CFFC002010BDFF
:1039C00070B5044694F83A0022284AD1A068B0F5B0
:1039D000805F13D1A56A206940B920684068C0F3B0
:1039E00008002880A06A801CA06219E02068406856
:1039F000C0B22880A06A401CA06211E0206938B9DA
:103A000020684068C1B2A26A501CA062117007E031
:103A10002068406800F07F01A26A501CA06211700B
:103A2000E08D401E80B2E085C8B92068C06820F0F3
:103A300020002168C8602068C06820F48070216878
:103A4000C8602068406920F001002168486120209A
:103A500084F83A002046FEF77FFC002070BD00206D
:103A6000FCE70220FAE700002DE9F84F0446206841
:103A7000006920F44050E168084321680861216929
:103A8000A068084361690843E16908430090206821
:103A9000C06849F20C618843009908432168C860F6
:103AA0002068406920F44070A1690843216848619A
:103AB000E069B0F5004F75D1E3492068884203D032
:103AC000E249206888426FD1FEF7A2F981460220C0
:103AD0006168A0FB01510B461920A9FB00712A4621
:103AE0003846FCF7CDFB6421B0FBF1F04FEA001A39
:103AF00002206168A0FB01510B461920A9FB00714F
:103B00002A463846FCF7BCFB074602206168A0FB4A
:103B100001510B461920A9FB00B12A465846FCF773
:103B2000AFFB6421B0FBF1F000EBC00101EB001032
:103B3000A7EB8000322101EBC0006421B0FBF1F063
:103B400000F0F8000AEB400A02206168A0FB015176
:103B50000B461920A9FB00712A463846FCF790FB5A
:103B6000074602206168A0FB01510B461920A9FB02
:103B700000B12A465846FCF783FB6421B0FBF1F004
:103B800000EBC00101EB0010A7EB8000322101EB3C
:103B9000C0006421B0FBF1F000F007005044216840
:103BA00088604FE16EE0FFE7FEF722F981460220D0
:103BB0006168A0FB01510B461920A9FB00712A4640
:103BC0003846FCF75DFB6421B0FBF1F04FEA001AC8
:103BD00002206168A0FB01510B461920A9FB00716E
:103BE0002A463846FCF74CFB074602206168A0FBDA
:103BF00001510B461920A9FB00B12A465846FCF793
:103C00003FFB6421B0FBF1F000EBC00101EB0010C1
:103C1000A7EB8000322101EBC0006421B0FBF1F082
:103C200000F0F8000AEB400A02206168A0FB015195
:103C30000B461920A9FB00712A463846FCF720FBE9
:103C4000074602206168A0FB015003461920A9FB2A
:103C500000B12A465846FCF713FB6421B0FBF1F093
:103C600000EBC00101EB0010A7EB8000322101EB5B
:103C7000C0006421B0FBF1F000F00700504421685F
:103C80008860DFE070492068884203D06F4920686F
:103C900088426BD1FEF7BCF8814604206168A0FB26
:103CA00001510B461920A9FB00712A463846FCF742
:103CB000E7FA824604206168A0FB01510B461920F7
:103CC000A9FB00712A463846FCF7DAFA6421B0FBFA
:103CD000F1F000EBC00101EB0010AAEB80003221F3
:103CE00001EB00106421B0FBF1F000F0F00A0420B9
:103CF0006168A0FB015003461920A9FB00712A4608
:103D00003846FCF7BDFA6421B0FBF1F00AEB001A6B
:103D100004206168A0FB01510B461920A9FB00712A
:103D20002A463846FCF7ACFA074604206168A0FB37
:103D3000015003461920A9FB00B12A465846FCF75A
:103D40009FFA6421B0FBF1F000EBC00101EB001021
:103D5000A7EB8000322101EB00106421B0FBF1F0F1
:103D600000F00F005044216888606BE0FEF740F8D7
:103D7000814604206168A0FB015003461920A9FB7D
:103D800000712A463846FCF77BFA824604206168B7
:103D9000A0FB015003461920A9FB00712A463846B2
:103DA000FCF76EFA6421B0FBF1F000EBC00101EB0F
:103DB0000010AAEB8000322101EB00106421B0FB5F
:103DC000F1F000F0F00A04206168A0FB0150034606
:103DD0001920A9FB00712A463846FCF751FA6421E4
:103DE000B0FBF1F00AEB001A04206168A0FB01703F
:103DF00003461920A9FB005001463A462846FCF725
:103E00003FFA074604206168A0FB015003461920D1
:103E1000A9FB00B12A465846FCF732FA6421B0FBF0
:103E2000F1F000EBC00101EB0010A7EB80003221A4
:103E300001EB00106421B0FBF1F000F00F005044E2
:103E400021688860BDE8F88F00100140001401402F
:103E5000014691F8390021282CD18868B0F5805F9F
:103E60000FD10A6A1088C0F308000B68586008690F
:103E700018B9086A801C086209E0086A401C0862D8
:103E800005E00B6A581C086218780B685860C88CEB
:103E9000401E80B2C88458B90868C06820F080000D
:103EA0000B68D8600868C06840F040000B68D860B4
:103EB000002070470220FCE770B505460C46164608
:103EC000284600F013F803460BB9002070BD24B15A
:103ED000D86805490843D86004E0D8680249C94356
:103EE0000840D8600120F1E72000001001460729B2
:103EF00011D2DFE801F0100406080A0C0E00084891
:103F00000BE0084809E0084807E0084805E00848D1
:103F100003E0084801E0002000BF00BF7047000038
:103F2000001001400044004000480040004C0040A8
:103F3000005000400014014030B505462846FFF708
:103F4000D5FF03460BB9002030BD5868C4B22046E7
:103F5000FAE730B505460C462846FFF7C7FF03468B
:103F60000BB9002030BD5C6000BF186800F0800015
:103F70000028FAD00120F5E710B504462046FFF7E7
:103F8000B5FF03460BB9002010BD00BF186800F054
:103F900040000028FAD00120F6E700BFFEE700004D
:103FA00000487047F46802080FB4054B10B503A928
:103FB000044A029800F042F810BC5DF814FB0000BF
:103FC00001420208A800002002480068C0F3022055
:103FD000704700000CED00E010B5002804DB0A0774
:103FE000130E054A135406E00A07140E034A00F0A4
:103FF0000F031B1FD45410BD00E400E018ED00E0D7
:10400000EFF311807047EFF305807047EFF31080F6
:10401000704702E008C8121F08C1002AFAD1704791
:104020007047002001E001C1121F002AFBD1704738
:1040300010B50446204601F021FA10BD2DE9FF4FCE
:1040400089B09B460446002506E025280BD05A4639
:104050000B999047641C6D1C20780028F5D10DB099
:104060002846BDE8F08F0027B8460122474900E006
:10407000074314F8013F203B02FA03F00842F7D14E
:1040800020782E2819D114F8010F47F004072A28A8
:104090000ED06FF02F022078A0F1300109290CD842
:1040A00008EB880102EB410100EB0108641CF2E718
:1040B0000A98641C50F8048B0A9020780028CED00F
:1040C000642808D0692806D075281ED05A460B9956
:1040D00090476D1C58E00A994FF00A0901C90A91EE
:1040E000002802DA40422D2102E0390504D52B21B7
:1040F0008DF82010012103E0F90704D02021F7E713
:104100008A4608AE0DE00021FAE70A994FF00A0945
:1041100001C90A91F7E74946FCF707F9303106F87B
:10412000011D0028F7D1ADEB060000F1200978074A
:1041300001D44FF00108C84502DDA8EB090000E0FA
:1041400000208046002706E008A85A46C05D0B996B
:1041500090476D1C7F1C5745F6DB04E030205A4623
:104160000B9990476D1CB8F10001A8F10108F5DC2E
:1041700005E016F8010B5A460B9990476D1CB9F1F2
:104180000001A9F10109F4DC641C65E709280100BC
:10419000002001E000BF401C5028FBDB70470000FE
:1041A0000146722901DB00207047084850F83100B1
:1041B0000069064A02EBC102137901229A401040BD
:1041C00008B10120F0E70020EEE700008C6402084F
:1041D000722800DB704709B9012200E00022114675
:1041E000064A02EBC002137901229A400B019A4061
:1041F000024B53F830309A6100BFEBE78C64020841
:1042000038B504468DF8000069460320ABBE204651
:1042100038BD10B500241C20FFF7C2FF08B944F0D8
:1042200001041D20FFF7BCFF08B944F002041E2062
:10423000FFF7B6FF08B944F004041F20FFF7B0FFF2
:1042400008B944F00804204610BD000000210020F9
:1042500008E0064A1268121D52F82020D27C02B1F2
:104260000121401C0828F4DB0846704708000020A4
:104270000C480D490860FDF7E1FBFFF75BF8FEF71E
:1042800085FBFEF7A7FBFCF789F900F067F8074A02
:104290000021074800F0A6F80649086000F07EF803
:1042A00000BFFEE70000020808ED00E050640208CD
:1042B000AB31020800000020F0B50B30154D20F0A6
:1042C00007010024144A0FE003688B420BD38B4292
:1042D00005D95E1A43184768C3E9006700E04368E0
:1042E000136002C004E0021D10680028ECD12046D3
:1042F000002802D1286808B10020F0BD064A07480E
:104300001060074A121A22F00702C0E900240120B7
:104310002860D7E7B0000020AC000020D49E002029
:10432000D0AE002070B50546FFF76DFE48B9FFF727
:104330006DFE10B9FFF764FE30B10748006802282F
:1043400002D16FF0050404E0002415B1284601F005
:1043500095F8204670BD00007C00002010B5FFF7E6
:1043600052FE48B9FFF752FE10B9FFF749FE30B1CF
:1043700009480068022802D16FF0050409E00648E8
:10438000006820B9012004490860002401E04FF0D2
:10439000FF34204610BD00007C00002010B5FFF760
:1043A00032FE48B9FFF732FE10B9FFF729FE30B1EF
:1043B0000B480068022802D16FF005040EE008489F
:1043C0000068012808D100BF00BF0220044908602E
:1043D00001F0E0F8002401E04FF0FF34204610BD6A
:1043E0007C0000202DE9FF478046894614460020C6
:1043F0000390FFF708FE00285BD1FFF707FE10B916
:10440000FFF7FEFD18B12C480068022851D0B8F122
:10441000000F4ED04FF4806618254FF0000A4FF081
:10442000FF3744B3206808B1D4F800A0A06900B1F8
:10443000A5692DB1382D03D8207900F0010018B1FD
:10444000002004B0BDE8F087606908B160698608A3
:10445000A06840B1E068602805D3206918B16069A0
:1044600008B1012708E0A06830B9E06820B92069E8
:1044700010B9002700E00027012F0CD12169A068A6
:104480004B463246CDE9005102905146404601F07C
:1044900019FD03900DE067B903A8B2B24B4651462F
:1044A000CDE90050404601F0DBFC012801D000209E
:1044B00003900398C5E700007C00002070B5034618
:1044C0000C46722B00DB70BD474D55F8330005EBF1
:1044D000C3052B795D06290E072C7DD2DFE804F099
:1044E000347F63497F041C00026803258D40AA4382
:1044F00001258D402A430260866803258D40AE4326
:104500008660856801268E403543856045680126B2
:104510009E40B543456063E0026803258D40AA4391
:1045200001258D402A430260856803268E40B543ED
:104530008560866801258D402E438660456801268A
:104540009E40354345604BE0026803258D40AA43F9
:104550000260866803258D40AE438660866801252B
:104560008D402E438660466801259D402E4346605F
:1045700036E0026803258D40AA4302608568032661
:104580008E40B5438560866801258D402E43866048
:10459000C56803268E40B543C560C56802268E40B7
:1045A0003543C5601CE0026803258D40AA430260C4
:1045B000856803268E40B5438560866801258D4059
:1045C0002E438660C66803258D40AE43C660C6682C
:1045D00001258D402E4300E001E0C66000E000BFF1
:1045E00000BF00BF6FE700008C6402082DE9F041B6
:1045F00005460E461648076816480068001D00F07C
:10460000BDFD681C38B936B112480168091D124851
:1046100000F00AFE1AE07C190E4800684460BC42B3
:1046200007D20C480168091D0C48006800F0E2FD43
:104630000CE008480168091D0948006800F0DAFD2F
:1046400008480068844201D206480460BDE8F08151
:10465000400000202C000020E0300020340000202A
:10466000300000205C00002010B5044600F0E8FD9A
:1046700024480068401C234908602348006840B96A
:10468000214804600846006801280DD100F0FEF9B9
:104690000AE01E48006838B91B480068C06AE16A31
:1046A000884201D81848046019480068401C18491D
:1046B00008600846006860641649E06A0968884234
:1046C00002D91449E06A0860E16A01EB8101124AEB
:1046D00002EB8100211D00F0A7FD00F0DBFD0B487F
:1046E000006868B108480068C06AE16A884207D279
:1046F0004FF0805009490860BFF34F8FBFF36F8FB1
:1047000010BD00003C0000202C00002048000020CC
:104710005800002044000020302C002004ED00E070
:1047200008B500F08DFD12480068E8B9114800F0A6
:1047300051FD114800F04EFD0E48104908600E482A
:104740000F49086000200F4B0F4A102100900A20EB
:1047500001F080F8064908600846006820B10BA106
:104760000348006800F04EFE00F094FD08BD000014
:1047700070000020F4300020083100206800002084
:104780006C0000201C3100206C310020546D7251EF
:104790000000000010B516E000F052FD0C48C068A3
:1047A000C468201D00F0EAFC0A480068401E094960
:1047B000086009480068401E0749086000F06AFD6B
:1047C000204600F05FF8044800680028E4D110BDDE
:1047D000CC3000203C0000203800002070B504469A
:1047E0000D46206C70B1216CE0680144E160D4E9B1
:1047F0000210884201D32168E1602846226CE168FA
:10480000FBF76FFD70BD2DE9F04104460F461546DC
:104810004FF00008A66B206C48B9206800282CD106
:10482000A06801F077FC80460020A06025E07DB9FB
:104830003946226C6068FBF754FD216C60680844BF
:104840006060D4E90101884217D32068606014E0F9
:104850003946226CE068FBF744FD216CE068411AA0
:10486000E1602168E068884203D2216CA068411AA7
:10487000E160022D01D106B1761E701CA063404696
:10488000BDE8F08110B5044694F85D0030B9206BA6
:1048900000F01EFD204600F01BFD1AE094F85D00BC
:1048A000012803D1204600F013FD12E094F85D00CA
:1048B000022801D1012000E0002050B900BF5020A3
:1048C00080F31188BFF34F8FBFF36F8F00BF00BF1E
:1048D000FEE710BD0146084A126812680AB90122B3
:1048E00000E000220A600A6822B9034A1268D2680E
:1048F000106800E0002070476800002030B54FF4D9
:104900007053174800F007042CB1C01D20F00700B9
:10491000134C041B1B1B0246124C22600024114D39
:104920006C60D018083820F007000F4C206000247D
:104930000D4D2D686C600C4D2D682C601146441A8D
:104940004C60094C24680C60084D4C682C60084D84
:104950004C682C604FF00044064D2C6030BD0000C8
:10496000CC62002080000020880000209000002001
:104970008C0000209400002000BFFFF70BFF0648CA
:1049800000680128F9D94FF0805004490860BFF34E
:104990004F8FBFF36F8FF0E7302C002004ED00E065
:1049A0002DE9F04106460D4617469846069C0DB97E
:1049B000246000E02760E66325640121204600F0C2
:1049C000B9FF84F84C80BDE8F0812DE9F05F8246A4
:1049D0000E4690469B460A9F0C9C4FEA8801A522F2
:1049E000206BFBF790FCA8F10100216B01EB800923
:1049F00029F0070909F0070008B9012000E00020AC
:104A000050B900BF502080F31188BFF34F8FBFF320
:104A10006F8F00BF00BFFEE786B1002507E0715D24
:104A200004F134004155705D00B902E06D1C102D99
:104A3000F5D300BF00214320015502E0002084F897
:104A40003400382F00D33727E762E7640020206561
:104A5000201D00F0CCFB04F1180000F0C8FB24611D
:104A6000C7F13800A061646200206065A06584F829
:104A70005C005A465146484600F06AFB20600B989D
:104A800008B10B980460BDE8F09F000010B5002449
:104A900007E004EB84010F4A02EB810000F09AFB6F
:104AA000641C382CF5D30C4800F094FB0B4800F044
:104AB00091FB0B4800F08EFB0A4800F08BFB0A4884
:104AC00000F088FB04480949086004480849086068
:104AD00010BD0000302C002090300020A4300020B9
:104AE000B8300020CC300020E03000203000002022
:104AF0003400002010B50146164800E00068036845
:104B00008B42FBD30246436813448B4204D1436873
:104B10004C682344436001460A464B6813440468CA
:104B2000A34211D10C4C03682468A34208D04B68FF
:104B30000468646823444B6003681B680B6005E0ED
:104B4000054B1B680B6001E003680B60884200D0D6
:104B5000016010BD80000020880000202DE9F04198
:104B600004460D4616461F464FF000086560246156
:104B7000B5420CD8F01BA169884202D34FF001085E
:104B800011E0211D0948006800F034FB0BE0BE4233
:104B900004D2BD4202D34FF0010804E0211D0448B5
:104BA000006800F027FB4046BDE8F0816C00002063
:104BB0006800002070B5054600F042FBA86B08B9FC
:104BC000012400E0002400F065FB204670BD70B5B4
:104BD000054600F035FBA86BE96B884201D1012442
:104BE00000E0002400F056FB204670BDF8B50546F5
:104BF0000F461A480068C068C468201D00F0BEFA5D
:104C000094F8280000F00400E8B1A06941192B468F
:104C10003A462046FFF7A2FFD8B1002003462A46B5
:104C200001460090204601F0D1FB064656B900BF70
:104C3000502080F31188BFF34F8FBFF36F8F00BFF9
:104C400000BFFEE705E094F8280020F0010084F89A
:104C500028002046216A8847F8BD0000680000202F
:104C6000F0B587B0A0E00398002811DA04AE56B979
:104C700000BF502080F31188BFF34F8FBFF36F8FB9
:104C800000BF00BFFEE7D6E90020B168904700BF33
:104C900003980028E6DB059C606908B9012000E064
:104CA000002010B9201D00F069FA02A800F0DEF81B
:104CB000054603980A2875D2DFE800F00905073990
:104CC000416306083A4200BF00BF00BF00BF94F82E
:104CD000280040F0010084F828000498A269811897
:104CE00003462A462046FFF739FFF8B12046216ADD
:104CF000884794F8280000F00400B8B10020009024
:104D00000498A169421800231946204601F05EFB71
:104D1000074657B900BF502080F31188BFF34F8F6B
:104D2000BFF36F8F00BF00BFFEE700BF3BE000BFD7
:104D300094F8280020F0010084F8280033E000BF38
:104D400094F8280040F0010084F828000498A0613D
:104D5000A06908B1012000E0002050B900BF502038
:104D600080F31188BFF34F8FBFF36F8F00BF00BF79
:104D7000FEE7A06941192B462A462046FFF7EEFEC2
:104D800011E094F8280000F0020018B9204600F065
:104D90009FFA05E094F8280020F0010084F828002C
:104DA00001E0FFE700BF00BF002203A9044800683C
:104DB00000F05CFF00287FF456AF07B0F0BD0000A4
:104DC00070000020F8B505460C4600F03FFC684630
:104DD00000F04CF80646009820BB44B9B54206D80E
:104DE00001F036FA31462846FFF700FF1CE03CB1DF
:104DF0000E480068006808B9012000E00020044661
:104E0000A91B22460A48006800F012FB01F020FAB4
:104E100050B94FF0805007490860BFF34F8FBFF380
:104E20006F8F01E001F014FAF8BD00006C00002063
:104E30007000002004ED00E00A490968096809B91A
:104E4000012100E0002121B14FF0FF31064A11603D
:104E500006E004490968C968C868034A41681160E6
:104E600070470000300000205C00002070B5044650
:104E700001F0A8F8054607480068854204D200F012
:104E80000BF80120206001E000202060014805604F
:104E9000284670BD780000202DE9F84334E025480D
:104EA0000068C068056823480068C068C468201DA1
:104EB00000F064F92046216A884794F8280000F041
:104EC000040008B3A0694619AE4207D966602461A0
:104ED000211D1848006800F08DF915E000200346F8
:104EE0002A4601460090204601F070FA074657B95D
:104EF00000BF502080F31188BFF34F8FBFF36F8F37
:104F000000BF00BFFEE700BF0A480068006808B99C
:104F1000012000E000200028C1D00648D0F8008021
:104F200005480068034908600348C0F80080BDE8F0
:104F3000F8830000680000206C0000200E48006824
:104F4000401C08B9012000E0002050B900BF5020EB
:104F500080F31188BFF34F8FBFF36F8F00BF00BF87
:104F6000FEE700BF502080F31188BFF34F8FBFF3DF
:104F70006F8F00BF00BFFEE79800002008B500BF9C
:104F80006846FFF7A7FC044620460099FFF71AFF82
:104F9000FFF766FEF4E770B5044600F051F994F9A6
:104FA000455010E0606A08B9012000E0002038B9DF
:104FB00004F1240001F000F918B100F099FA00E0C2
:104FC00003E0681E45B2002DECDC00BFFF2084F832
:104FD000450000F05FF900F033F994F9445010E017
:104FE000206908B9012000E0002048B904F1100050
:104FF00001F0E2F808B100F07BFA681E45B200E06B
:1050000001E0002DECDC00BFFF2084F8440000F03C
:1050100041F970BD2DE9F04104464FF0000800F061
:1050200015FB4648006808B9FFF768FC444800686B
:10503000204000286BD1D4B1083404F00700B0B18F
:1050400004F00700C0F10800044404F0070008B9A8
:10505000012000E0002050B900BF502080F31188EB
:10506000BFF34F8FBFF36F8F00BF00BFFEE7002C71
:105070004DD034480068844249D8334E30460568E4
:1050800001E02E462D686868A04202D228680028F8
:10509000F7D12A480068854239D0306800F1080805
:1050A000286830606868001B102819D92F1907F08C
:1050B000070008B9012000E0002050B900BF5020CF
:1050C00080F31188BFF34F8FBFF36F8F00BF00BF16
:1050D000FEE76868001B78606C603846FFF70AFDE1
:1050E000184968680968081A16490860084600687F
:1050F00016490968884203D21248006813490860BB
:105100000F4968680968084368600020286001F05A
:105110009FF808F0070008B9012000E0002050B90E
:1051200000BF502080F31188BFF34F8FBFF36F8F04
:1051300000BF00BFFEE74046BDE8F08188000020C8
:10514000940000208C0000208000002090000020AF
:10515000001F4FF080730360001F21F00103036004
:10516000001F054B036014380260001F6FF002033C
:1051700003602038704700003D4F020801460A696D
:10518000D1E901309860D1E9010358605068884244
:1051900001D188685060002008611068401E1060CE
:1051A00010687047034B0360034B0B604FF4806340
:1051B000136070470C3200206C320020034B0360F8
:1051C000034B0B604FF40063136070476C42002088
:1051D000CC42002000F1080141604FF0FF318160B6
:1051E00000F10801C16001610021016070470021E8
:1051F0000161704710B502460B685C1C0CB9106960
:1052000007E002F1080000E04068446824689C421E
:10521000FAD944684C604C68A160886041600A61BA
:105220001468641C146010BD42684A6093688B6007
:10523000936859609160086103685B1C0360704764
:1052400000BF502080F31188BFF34F8FBFF36F8FE3
:1052500000BF0E480068401C0C4908600846006802
:10526000012812D10A480068C0B208B9012000E044
:10527000002050B900BF502080F31188BFF34F8F3A
:10528000BFF36F8F00BF00BFFEE77047980000209C
:1052900004ED00E00D48006850B900BF502080F3D5
:1052A0001188BFF34F8FBFF36F8F00BF00BFFEE7C2
:1052B00006480068401E054908600846006820B995
:1052C000002080F3118800BF00BF704798000020C5
:1052D00070B506463546002E3FD0083D2C461F4986
:1052E00060680968084008B1012000E0002050B95A
:1052F00000BF502080F31188BFF34F8FBFF36F8F33
:1053000000BF00BFFEE7206808B9012000E00020D0
:1053100050B900BF502080F31188BFF34F8FBFF307
:105320006F8F00BF00BFFEE70C4960680968084046
:1053300098B1206888B90949606809688843606045
:1053400000F084F906496068096808440449086067
:105350002046FFF7CFFB00F07BFF70BD94000020DC
:105360008C00002000204FF0E02108618861064891
:1053700000684FF47A71B0FBF1F0401E4FF0E0216D
:1053800048610720086170472800002070B5FAF7CF
:1053900061FF0446102C16D304F1E02090F8F0537E
:1053A00015480078854201DB012000E0002050B95B
:1053B00000BF502080F31188BFF34F8FBFF36F8F72
:1053C00000BF00BFFEE70D48006800F4E0600C4934
:1053D0000968884201D8012000E0002050B900BFD0
:1053E000502080F31188BFF34F8FBFF36F8F00BF42
:1053F00000BFFEE770BD00009C0000200CED00E047
:10540000A0000020024600200BE0084B53F830308B
:1054100033B9064B43F8301003EBC0035A6002E087
:10542000401C0828F1D300BF70470000F02B00207B
:105430002DE9F04105460E4617462C46FFF700FFC2
:1054400094F94400401C10B9002084F8440094F9F9
:105450004500401C10B9002084F84500FFF71AFFF2
:10546000A06B28B93A46314604F1240000F062F8F6
:105470002046FFF790FDBDE8F081000070B50446BE
:105480000025D4B11248006808B9012000E00020CE
:1054900050B900BF502080F31188BFF34F8FBFF386
:1054A0006F8F00BF00BFFEE700F0D0F8002120465C
:1054B000FFF79CF800F0CCFE05463DB94FF0805058
:1054C00004490860BFF34F8FBFF36F8F70BD0000BA
:1054D0006400002004ED00E003490968016003490D
:1054E000096841607047000054000020400000201F
:1054F00001200149086070475000002070B5044643
:105500000D4654B900BF502080F31188BFF34F8F70
:10551000BFF36F8F00BF00BFFEE705480168183179
:105520002046FFF767FE01212846FFF75FF870BDB0
:105530002C00002070B505460E46144655B900BF34
:10554000502080F31188BFF34F8FBFF36F8F00BFE0
:1055500000BFFEE70648016818312846FFF764FEE1
:105560000CB14FF0FF3621463046FFF73FF870BDD3
:105570002C00002070B504460E4614B90448056896
:1055800000E02546FFF75CFE6E65FFF783FE70BD09
:105590002C00002010B586B000200590049003AACE
:1055A00004A905A8FFF7FEFD0022DDE9041013465B
:1055B000CDE9002102901EA11F48039A00F082FC51
:1055C0001E4908600846006808B1012400E0002474
:1055D000012C02D100F0BEFE0446012C15D100BF03
:1055E000502080F31188BFF34F8FBFF36F8F00BF40
:1055F0004FF0FF3012490860012012490860002076
:105600001149086000F072F810E0601C08B1012038
:1056100000E0002050B900BF502080F31188BFF394
:105620004F8FBFF36F8F00BF00BFFEE706B010BD06
:1056300049444C4500000000794902086000002000
:105640005C00002048000020400000200248006864
:10565000401C014908607047640000201E48006833
:1056600018B101201D49086034E000201B49086082
:105670001B4801680CE051B900BF502080F311882D
:10568000BFF34F8FBFF36F8F00BF00BFFEE7491E10
:1056900001EB8100134A52F8200008B9012000E014
:1056A00000200028E7D101EB81020E4B03EB8200C2
:1056B00042685268426000F108024368934202D196
:1056C0004268526842604268D268074B1A600448D8
:1056D000016000BF704700006400002050000020FF
:1056E00044000020302C00202C0000201CB5524823
:1056F00000685249884201D0012000E0002050B9E2
:1057000000BF502080F31188BFF34F8FBFF36F8F1E
:1057100000BF00BFFEE7484800684849491E88426C
:1057200001D0012000E0002050B900BF502080F3DC
:105730001188BFF34F8FBFF36F8F00BF00BFFEE72D
:105740003F49084600780190FF200A46107008463D
:10575000007800909DF8000000F0F0009DF8002017
:10576000904201D1012000E0002050B900BF50203C
:1057700080F31188BFF34F8FBFF36F8F00BF00BF5F
:10578000FEE79DF8000000F050002E4A1070072040
:105790002D4A106009E02C480068401E2A4A10601B
:1057A0009DF800004006000E00909DF8000000F0FB
:1057B00080008028EFD024480068C0F1070004284A
:1057C00001D1012000E0002050B900BF502080F33B
:1057D0001188BFF34F8FBFF36F8F00BF00BFFEE78D
:1057E000194800680002184A10601046008800F44A
:1057F000E0601060124A019810700F482030006875
:1058000040F470000C49203108600846006840F000
:1058100070400860FFF7A6FD00200C490860FAF709
:10582000E1FC0B48006840F0404009490860FAF785
:10583000C5FC00201CBD000000ED00E071C20F415E
:1058400000E400E09C000020A00000209800002060
:1058500034EF00E02DE9F84380460E4617461D461A
:10586000DDF82090B8F1000F01D0012000E0002009
:1058700050B900BF502080F31188BFF34F8FBFF3A2
:105880006F8F00BF00BFFEE70DB1012000E00020D8
:1058900050B900BF502080F31188BFF34F8FBFF382
:1058A0006F8F00BF00BFFEE707B10EB1012000E01F
:1058B000002050B900BF502080F31188BFF34F8FF4
:1058C000BFF36F8F00BF00BFFEE707B90EB901201D
:1058D00000E0002050B900BF502080F31188BFF3D2
:1058E0004F8FBFF36F8F00BF00BFFEE750200090C7
:1058F0000098502801D1012000E0002050B900BFDD
:10590000502080F31188BFF34F8FBFF36F8F00BF1C
:1059100000BFFEE700BF2C464CB1012084F84600D2
:105920004B463A46314640460094FFF739F8204648
:10593000BDE8F88370B505460E462C4654B900BF45
:10594000502080F31188BFF34F8FBFF36F8F00BFDC
:1059500000BFFEE7FFF774FCD4E90F12206801FBDB
:105960000200A0600020A06320686060E06B401E21
:10597000226C216800FB0211E160FF2084F84400E2
:1059800084F845009EB9206908B9012000E0002094
:10599000A8B904F1100000F00FFC80B14FF0805066
:1059A00009490860BFF34F8FBFF36F8F07E004F121
:1059B0001000FFF70FFC04F12400FFF70BFCFFF7CA
:1059C00069FC012070BD000004ED00E02DE9FF43FB
:1059D00083B0064688461D464FF00009344654B948
:1059E00000BF502080F31188BFF34F8FBFF36F8F3C
:1059F00000BF00BFFEE7B8F1000F01D1206C08B96D
:105A0000012000E0002050B900BF502080F3118831
:105A1000BFF34F8FBFF36F8F00BF00BFFEE7022DB4
:105A200002D1E06B012801D1012000E0002050B933
:105A300000BF502080F31188BFF34F8FBFF36F8FEB
:105A400000BF00BFFEE700F0ADFA08B9059808B93D
:105A5000012000E0002050B900BF502080F31188E1
:105A6000BFF34F8FBFF36F8F00BF00BFFEE700BFD4
:105A7000FFF7E6FBA06BE16B884201D3022D28D132
:105A80002A4641462046FEF7BEFE0746606A08B930
:105A9000012000E0002068B904F1240000F08CFB34
:105AA00088B14FF0805032490860BFF34F8FBFF389
:105AB0006F8F08E03FB14FF080502D490860BFF371
:105AC0004F8FBFF36F8FFFF7E5FB012007B0BDE8F5
:105AD000F083059818B9FFF7DDFB0020F6E7B9F170
